{
  "contractName": "HodlFarm",
  "abi": [
    {
      "inputs": [
        {
          "internalType": "contract HodlToken",
          "name": "_hodlToken",
          "type": "address"
        },
        {
          "internalType": "contract DaiToken",
          "name": "_daiToken",
          "type": "address"
        }
      ],
      "stateMutability": "nonpayable",
      "type": "constructor"
    },
    {
      "anonymous": false,
      "inputs": [
        {
          "indexed": true,
          "internalType": "address",
          "name": "previousOwner",
          "type": "address"
        },
        {
          "indexed": true,
          "internalType": "address",
          "name": "newOwner",
          "type": "address"
        }
      ],
      "name": "OwnershipTransferred",
      "type": "event"
    },
    {
      "inputs": [],
      "name": "daiToken",
      "outputs": [
        {
          "internalType": "contract DaiToken",
          "name": "",
          "type": "address"
        }
      ],
      "stateMutability": "view",
      "type": "function",
      "constant": true
    },
    {
      "inputs": [
        {
          "internalType": "address",
          "name": "",
          "type": "address"
        }
      ],
      "name": "hodlBalance",
      "outputs": [
        {
          "internalType": "uint256",
          "name": "",
          "type": "uint256"
        }
      ],
      "stateMutability": "view",
      "type": "function",
      "constant": true
    },
    {
      "inputs": [],
      "name": "hodlToken",
      "outputs": [
        {
          "internalType": "contract HodlToken",
          "name": "",
          "type": "address"
        }
      ],
      "stateMutability": "view",
      "type": "function",
      "constant": true
    },
    {
      "inputs": [
        {
          "internalType": "address",
          "name": "",
          "type": "address"
        }
      ],
      "name": "isStaking",
      "outputs": [
        {
          "internalType": "bool",
          "name": "",
          "type": "bool"
        }
      ],
      "stateMutability": "view",
      "type": "function",
      "constant": true
    },
    {
      "inputs": [],
      "name": "name",
      "outputs": [
        {
          "internalType": "string",
          "name": "",
          "type": "string"
        }
      ],
      "stateMutability": "view",
      "type": "function",
      "constant": true
    },
    {
      "inputs": [],
      "name": "owner",
      "outputs": [
        {
          "internalType": "address",
          "name": "",
          "type": "address"
        }
      ],
      "stateMutability": "view",
      "type": "function",
      "constant": true
    },
    {
      "inputs": [],
      "name": "renounceOwnership",
      "outputs": [],
      "stateMutability": "nonpayable",
      "type": "function"
    },
    {
      "inputs": [
        {
          "internalType": "uint256",
          "name": "",
          "type": "uint256"
        }
      ],
      "name": "stakers",
      "outputs": [
        {
          "internalType": "address",
          "name": "",
          "type": "address"
        }
      ],
      "stateMutability": "view",
      "type": "function",
      "constant": true
    },
    {
      "inputs": [
        {
          "internalType": "address",
          "name": "",
          "type": "address"
        }
      ],
      "name": "stakingBalance",
      "outputs": [
        {
          "internalType": "uint256",
          "name": "",
          "type": "uint256"
        }
      ],
      "stateMutability": "view",
      "type": "function",
      "constant": true
    },
    {
      "inputs": [
        {
          "internalType": "address",
          "name": "",
          "type": "address"
        }
      ],
      "name": "startTime",
      "outputs": [
        {
          "internalType": "uint256",
          "name": "",
          "type": "uint256"
        }
      ],
      "stateMutability": "view",
      "type": "function",
      "constant": true
    },
    {
      "inputs": [
        {
          "internalType": "address",
          "name": "newOwner",
          "type": "address"
        }
      ],
      "name": "transferOwnership",
      "outputs": [],
      "stateMutability": "nonpayable",
      "type": "function"
    },
    {
      "inputs": [
        {
          "internalType": "uint256",
          "name": "_amount",
          "type": "uint256"
        }
      ],
      "name": "stake",
      "outputs": [],
      "stateMutability": "nonpayable",
      "type": "function"
    },
    {
      "inputs": [],
      "name": "withdrawYield",
      "outputs": [],
      "stateMutability": "nonpayable",
      "type": "function"
    },
    {
      "inputs": [
        {
          "internalType": "address",
          "name": "_usr",
          "type": "address"
        }
      ],
      "name": "calculateYieldTime",
      "outputs": [
        {
          "internalType": "uint256",
          "name": "",
          "type": "uint256"
        }
      ],
      "stateMutability": "view",
      "type": "function",
      "constant": true
    },
    {
      "inputs": [],
      "name": "unstake",
      "outputs": [],
      "stateMutability": "nonpayable",
      "type": "function"
    }
  ],
  "bytecode": "0x60806040526040518060400160405280600881526020017f486f646c4661726d0000000000000000000000000000000000000000000000008152506001908051906020019062000051929190620001e2565b503480156200005f57600080fd5b5060405162001b1938038062001b19833981810160405260408110156200008557600080fd5b8101908080519060200190929190805190602001909291905050506000620000b2620001da60201b60201c565b9050806000806101000a81548173ffffffffffffffffffffffffffffffffffffffff021916908373ffffffffffffffffffffffffffffffffffffffff1602179055508073ffffffffffffffffffffffffffffffffffffffff16600073ffffffffffffffffffffffffffffffffffffffff167f8be0079c531659141344cd1fd0a4f28419497f9722a3daafe3b4186f6b6457e060405160405180910390a35081600260006101000a81548173ffffffffffffffffffffffffffffffffffffffff021916908373ffffffffffffffffffffffffffffffffffffffff16021790555080600360006101000a81548173ffffffffffffffffffffffffffffffffffffffff021916908373ffffffffffffffffffffffffffffffffffffffff160217905550505062000291565b600033905090565b828054600181600116156101000203166002900490600052602060002090601f016020900481019282601f106200022557805160ff191683800117855562000256565b8280016001018555821562000256579182015b828111156200025557825182559160200191906001019062000238565b5b50905062000265919062000269565b5090565b6200028e91905b808211156200028a57600081600090555060010162000270565b5090565b90565b61187880620002a16000396000f3fe608060405234801561001057600080fd5b50600436106100f55760003560e01c8063980d611611610097578063d0ab9be511610066578063d0ab9be514610401578063e507a8a414610459578063f2fde38b14610463578063fd5e6dd1146104a7576100f5565b8063980d6116146102e75780639da39c671461033f578063a694fc3a14610389578063be22f546146103b7576100f5565b80636e1dc66e116100d35780636e1dc66e146101df5780636f49712b14610237578063715018a6146102935780638da5cb5b1461029d576100f5565b806306fdde03146100fa5780632def66201461017d57806345bc78ab14610187575b600080fd5b610102610515565b6040518080602001828103825283818151815260200191508051906020019080838360005b83811015610142578082015181840152602081019050610127565b50505050905090810190601f16801561016f5780820380516001836020036101000a031916815260200191505b509250505060405180910390f35b6101856105b3565b005b6101c96004803603602081101561019d57600080fd5b81019080803573ffffffffffffffffffffffffffffffffffffffff1690602001909291905050506109f1565b6040518082815260200191505060405180910390f35b610221600480360360208110156101f557600080fd5b81019080803573ffffffffffffffffffffffffffffffffffffffff169060200190929190505050610a09565b6040518082815260200191505060405180910390f35b6102796004803603602081101561024d57600080fd5b81019080803573ffffffffffffffffffffffffffffffffffffffff169060200190929190505050610a21565b604051808215151515815260200191505060405180910390f35b61029b610a41565b005b6102a5610bc9565b604051808273ffffffffffffffffffffffffffffffffffffffff1673ffffffffffffffffffffffffffffffffffffffff16815260200191505060405180910390f35b610329600480360360208110156102fd57600080fd5b81019080803573ffffffffffffffffffffffffffffffffffffffff169060200190929190505050610bf2565b6040518082815260200191505060405180910390f35b610347610c5f565b604051808273ffffffffffffffffffffffffffffffffffffffff1673ffffffffffffffffffffffffffffffffffffffff16815260200191505060405180910390f35b6103b56004803603602081101561039f57600080fd5b8101908080359060200190929190505050610c85565b005b6103bf610f3f565b604051808273ffffffffffffffffffffffffffffffffffffffff1673ffffffffffffffffffffffffffffffffffffffff16815260200191505060405180910390f35b6104436004803603602081101561041757600080fd5b81019080803573ffffffffffffffffffffffffffffffffffffffff169060200190929190505050610f65565b6040518082815260200191505060405180910390f35b610461610f7d565b005b6104a56004803603602081101561047957600080fd5b81019080803573ffffffffffffffffffffffffffffffffffffffff169060200190929190505050611282565b005b6104d3600480360360208110156104bd57600080fd5b810190808035906020019092919050505061148f565b604051808273ffffffffffffffffffffffffffffffffffffffff1673ffffffffffffffffffffffffffffffffffffffff16815260200191505060405180910390f35b60018054600181600116156101000203166002900480601f0160208091040260200160405190810160405280929190818152602001828054600181600116156101000203166002900480156105ab5780601f10610580576101008083540402835291602001916105ab565b820191906000526020600020905b81548152906001019060200180831161058e57829003601f168201915b505050505081565b6001600860003373ffffffffffffffffffffffffffffffffffffffff1673ffffffffffffffffffffffffffffffffffffffff16815260200190815260200160002060006101000a81548160ff021916908315150217905561067c576040517f08c379a000000000000000000000000000000000000000000000000000000000815260040180806020018281038252601a8152602001807f596f7520617265206e6f74207374616b696e6720746f6b656e7300000000000081525060200191505060405180910390fd5b600061068733610bf2565b905060006106de6106d7600660003373ffffffffffffffffffffffffffffffffffffffff1673ffffffffffffffffffffffffffffffffffffffff16815260200190815260200160002054846114cb565b6064611551565b905042600560003373ffffffffffffffffffffffffffffffffffffffff1673ffffffffffffffffffffffffffffffffffffffff1681526020019081526020016000208190555061076d600760003373ffffffffffffffffffffffffffffffffffffffff1673ffffffffffffffffffffffffffffffffffffffff168152602001908152602001600020548261159b565b600760003373ffffffffffffffffffffffffffffffffffffffff1673ffffffffffffffffffffffffffffffffffffffff168152602001908152602001600020819055506000600660003373ffffffffffffffffffffffffffffffffffffffff1673ffffffffffffffffffffffffffffffffffffffff1681526020019081526020016000205490506000811161086a576040517f08c379a000000000000000000000000000000000000000000000000000000000815260040180806020018281038252601e8152602001807f596f7520646f206e6f7420686176652066756e647320746f206665746368000081525060200191505060405180910390fd5b6000600660003373ffffffffffffffffffffffffffffffffffffffff1673ffffffffffffffffffffffffffffffffffffffff16815260200190815260200160002081905550600360009054906101000a900473ffffffffffffffffffffffffffffffffffffffff1673ffffffffffffffffffffffffffffffffffffffff1663a9059cbb33836040518363ffffffff1660e01b8152600401808373ffffffffffffffffffffffffffffffffffffffff1673ffffffffffffffffffffffffffffffffffffffff16815260200182815260200192505050602060405180830381600087803b15801561095857600080fd5b505af115801561096c573d6000803e3d6000fd5b505050506040513d602081101561098257600080fd5b8101908080519060200190929190505050506000600860003373ffffffffffffffffffffffffffffffffffffffff1673ffffffffffffffffffffffffffffffffffffffff16815260200190815260200160002060006101000a81548160ff021916908315150217905550505050565b60066020528060005260406000206000915090505481565b60056020528060005260406000206000915090505481565b60086020528060005260406000206000915054906101000a900460ff1681565b610a49611623565b73ffffffffffffffffffffffffffffffffffffffff166000809054906101000a900473ffffffffffffffffffffffffffffffffffffffff1673ffffffffffffffffffffffffffffffffffffffff1614610b0a576040517f08c379a00000000000000000000000000000000000000000000000000000000081526004018080602001828103825260208152602001807f4f776e61626c653a2063616c6c6572206973206e6f7420746865206f776e657281525060200191505060405180910390fd5b600073ffffffffffffffffffffffffffffffffffffffff166000809054906101000a900473ffffffffffffffffffffffffffffffffffffffff1673ffffffffffffffffffffffffffffffffffffffff167f8be0079c531659141344cd1fd0a4f28419497f9722a3daafe3b4186f6b6457e060405160405180910390a360008060006101000a81548173ffffffffffffffffffffffffffffffffffffffff021916908373ffffffffffffffffffffffffffffffffffffffff160217905550565b60008060009054906101000a900473ffffffffffffffffffffffffffffffffffffffff16905090565b6000804290506000610c4382600560008773ffffffffffffffffffffffffffffffffffffffff1673ffffffffffffffffffffffffffffffffffffffff1681526020019081526020016000205461162b565b90506000610c5282603c611551565b9050809350505050919050565b600260009054906101000a900473ffffffffffffffffffffffffffffffffffffffff1681565b60008111610cfb576040517f08c379a000000000000000000000000000000000000000000000000000000000815260040180806020018281038252601c8152602001807f596f752063616e6e6f74207374616b65207a65726f20746f6b656e730000000081525060200191505060405180910390fd5b600360009054906101000a900473ffffffffffffffffffffffffffffffffffffffff1673ffffffffffffffffffffffffffffffffffffffff166323b872dd3330846040518463ffffffff1660e01b8152600401808473ffffffffffffffffffffffffffffffffffffffff1673ffffffffffffffffffffffffffffffffffffffff1681526020018373ffffffffffffffffffffffffffffffffffffffff1673ffffffffffffffffffffffffffffffffffffffff1681526020018281526020019350505050602060405180830381600087803b158015610dd857600080fd5b505af1158015610dec573d6000803e3d6000fd5b505050506040513d6020811015610e0257600080fd5b810190808051906020019092919050505050610e5d600660003373ffffffffffffffffffffffffffffffffffffffff1673ffffffffffffffffffffffffffffffffffffffff168152602001908152602001600020548261159b565b600660003373ffffffffffffffffffffffffffffffffffffffff1673ffffffffffffffffffffffffffffffffffffffff168152602001908152602001600020819055506001600860003373ffffffffffffffffffffffffffffffffffffffff1673ffffffffffffffffffffffffffffffffffffffff16815260200190815260200160002060006101000a81548160ff02191690831515021790555042600560003373ffffffffffffffffffffffffffffffffffffffff1673ffffffffffffffffffffffffffffffffffffffff1681526020019081526020016000208190555050565b600360009054906101000a900473ffffffffffffffffffffffffffffffffffffffff1681565b60076020528060005260406000206000915090505481565b6000600760003373ffffffffffffffffffffffffffffffffffffffff1673ffffffffffffffffffffffffffffffffffffffff16815260200190815260200160002054118061100a575042600560003373ffffffffffffffffffffffffffffffffffffffff1673ffffffffffffffffffffffffffffffffffffffff1681526020019081526020016000205414155b61101357600080fd5b600061101e33610bf2565b9050600061107561106e600660003373ffffffffffffffffffffffffffffffffffffffff1673ffffffffffffffffffffffffffffffffffffffff16815260200190815260200160002054846114cb565b6064611551565b90506000600760003373ffffffffffffffffffffffffffffffffffffffff1673ffffffffffffffffffffffffffffffffffffffff1681526020019081526020016000205414611155576000600760003373ffffffffffffffffffffffffffffffffffffffff1673ffffffffffffffffffffffffffffffffffffffff1681526020019081526020016000205490506000600760003373ffffffffffffffffffffffffffffffffffffffff1673ffffffffffffffffffffffffffffffffffffffff16815260200190815260200160002081905550611151828261159b565b9150505b42600560003373ffffffffffffffffffffffffffffffffffffffff1673ffffffffffffffffffffffffffffffffffffffff16815260200190815260200160002081905550600260009054906101000a900473ffffffffffffffffffffffffffffffffffffffff1673ffffffffffffffffffffffffffffffffffffffff1663a9059cbb33836040518363ffffffff1660e01b8152600401808373ffffffffffffffffffffffffffffffffffffffff1673ffffffffffffffffffffffffffffffffffffffff16815260200182815260200192505050602060405180830381600087803b15801561124257600080fd5b505af1158015611256573d6000803e3d6000fd5b505050506040513d602081101561126c57600080fd5b8101908080519060200190929190505050505050565b61128a611623565b73ffffffffffffffffffffffffffffffffffffffff166000809054906101000a900473ffffffffffffffffffffffffffffffffffffffff1673ffffffffffffffffffffffffffffffffffffffff161461134b576040517f08c379a00000000000000000000000000000000000000000000000000000000081526004018080602001828103825260208152602001807f4f776e61626c653a2063616c6c6572206973206e6f7420746865206f776e657281525060200191505060405180910390fd5b600073ffffffffffffffffffffffffffffffffffffffff168173ffffffffffffffffffffffffffffffffffffffff1614156113d1576040517f08c379a00000000000000000000000000000000000000000000000000000000081526004018080602001828103825260268152602001806117fc6026913960400191505060405180910390fd5b8073ffffffffffffffffffffffffffffffffffffffff166000809054906101000a900473ffffffffffffffffffffffffffffffffffffffff1673ffffffffffffffffffffffffffffffffffffffff167f8be0079c531659141344cd1fd0a4f28419497f9722a3daafe3b4186f6b6457e060405160405180910390a3806000806101000a81548173ffffffffffffffffffffffffffffffffffffffff021916908373ffffffffffffffffffffffffffffffffffffffff16021790555050565b6004818154811061149c57fe5b906000526020600020016000915054906101000a900473ffffffffffffffffffffffffffffffffffffffff1681565b6000808314156114de576000905061154b565b60008284029050828482816114ef57fe5b0414611546576040517f08c379a00000000000000000000000000000000000000000000000000000000081526004018080602001828103825260218152602001806118226021913960400191505060405180910390fd5b809150505b92915050565b600061159383836040518060400160405280601a81526020017f536166654d6174683a206469766973696f6e206279207a65726f000000000000815250611675565b905092915050565b600080828401905083811015611619576040517f08c379a000000000000000000000000000000000000000000000000000000000815260040180806020018281038252601b8152602001807f536166654d6174683a206164646974696f6e206f766572666c6f77000000000081525060200191505060405180910390fd5b8091505092915050565b600033905090565b600061166d83836040518060400160405280601e81526020017f536166654d6174683a207375627472616374696f6e206f766572666c6f77000081525061173b565b905092915050565b60008083118290611721576040517f08c379a00000000000000000000000000000000000000000000000000000000081526004018080602001828103825283818151815260200191508051906020019080838360005b838110156116e65780820151818401526020810190506116cb565b50505050905090810190601f1680156117135780820380516001836020036101000a031916815260200191505b509250505060405180910390fd5b50600083858161172d57fe5b049050809150509392505050565b60008383111582906117e8576040517f08c379a00000000000000000000000000000000000000000000000000000000081526004018080602001828103825283818151815260200191508051906020019080838360005b838110156117ad578082015181840152602081019050611792565b50505050905090810190601f1680156117da5780820380516001836020036101000a031916815260200191505b509250505060405180910390fd5b506000838503905080915050939250505056fe4f776e61626c653a206e6577206f776e657220697320746865207a65726f2061646472657373536166654d6174683a206d756c7469706c69636174696f6e206f766572666c6f77a264697066735822122086072d14ed734cbab2388b22f89892b87d30a53b6f63c165c26a7edbc81251a564736f6c63430006000033",
  "source": "pragma solidity ^0.6.0;\r\n\r\nimport './HodlToken.sol';\r\nimport '@openzeppelin/contracts/access/Ownable.sol';\r\nimport '@openzeppelin/contracts/math/SafeMath.sol';\r\n\r\ninterface DaiToken {\r\n        function transfer(address dst, uint wad) external returns (bool);\r\n        function transferFrom(address from, address to, uint wad) external returns (bool);\r\n        function balanceOf(address user) external view returns (uint);\r\n        function approve(address _spender, uint256 _value) external returns (bool);\r\n        }\r\n\r\ncontract HodlFarm is Ownable {\r\n    using SafeMath for uint256;\r\n\r\n    string public name = 'HodlFarm'; //for testing/smoke test\r\n\r\n    HodlToken public hodlToken;\r\n    DaiToken public daiToken;\r\n\r\n    address[] public stakers;\r\n\r\n    mapping(address => uint256) public startTime;\r\n    mapping(address => uint256) public stakingBalance;\r\n    mapping(address => uint256) public hodlBalance;\r\n    mapping(address => bool) public isStaking;\r\n\r\n    /**@dev DaiToken address must be inserted in migrations when\r\n    *       this contract deploys.\r\n     */\r\n    constructor(HodlToken _hodlToken, DaiToken _daiToken) public {\r\n        hodlToken = _hodlToken;\r\n        daiToken = _daiToken;\r\n    }\r\n\r\n    /**\r\n    *@notice A function that stakes stablecoin Dai to the contract.\r\n    *@dev After Dai transfers to the contract, the mapped staking balance updates. \r\n    *     This is necessary because the contract only pays out when the user withdraws \r\n    *     their earnings. The mapping keeps track of said yield.\r\n    *@param _amount The amount to be staked to the contract.\r\n     */\r\n    function stake(uint256 _amount) public {\r\n        require(_amount > 0, 'You cannot stake zero tokens');\r\n        daiToken.transferFrom(msg.sender, address(this), _amount);\r\n        stakingBalance[msg.sender] = SafeMath.add(stakingBalance[msg.sender], _amount);\r\n        isStaking[msg.sender] = true;\r\n        startTime[msg.sender] = block.timestamp;\r\n    }\r\n\r\n    /**@notice A method for withdrawing the hodlToken yield.\r\n    *@dev The timeStaked uint takes the result of the calculateYield function. \r\n    *     This contract gives the user 1% of their Dai balance in HodlToken every 60 \r\n    *     seconds. After fetching the the calculated balance, the contract checks for \r\n    *     an existing balance mapped to hodlBalance. This mapping is only relevant if \r\n    *     the user staked Dai multiple times without unstaking/withdrawing. Further, the\r\n    *     staking balance of the user is first multiplied by the time staked before\r\n    *     divided by 100 to equate 1% of the user's stake (per minute as seen in the\r\n    *     calculateYield function).\r\n     */\r\n    function withdrawYield() public {\r\n        require(hodlBalance[msg.sender] > 0 || startTime[msg.sender] != block.timestamp);\r\n        uint timeStaked = calculateYieldTime(msg.sender);\r\n        uint bal = SafeMath.div(SafeMath.mul(stakingBalance[msg.sender], timeStaked), 100);\r\n        if(hodlBalance[msg.sender] != 0){\r\n            uint oldBal = hodlBalance[msg.sender];\r\n            hodlBalance[msg.sender] = 0;\r\n            bal = SafeMath.add(bal, oldBal);\r\n        }\r\n        startTime[msg.sender] = block.timestamp;\r\n        hodlToken.transfer(msg.sender, bal);\r\n    }\r\n\r\n\r\n    /**@notice A method for calculating yield time.\r\n    *@dev The yield is calculated by first subtracting the initial timestamp by the current \r\n    *     timestamp. Thereafter, dividing 60 (as in 60 seconds per minute) by the timestamp \r\n    *     difference. This function is left public so the frontend can fetch and display the \r\n    *     user's yield in real time.\r\n    *@param _usr The address that a user calls this function from/for.\r\n     */\r\n    function calculateYieldTime(address _usr) public view returns(uint){\r\n        uint end = block.timestamp;\r\n        uint totalTime = SafeMath.sub(end, startTime[_usr]);\r\n        uint inMinutes = SafeMath.div(totalTime, 60);\r\n        return inMinutes;\r\n    }\r\n\r\n\r\n    /**@notice A method for users to take back their tokens from the contract.\r\n    *@dev The timeStaked uint gathers the yield time. The staked time(in minutes) is \r\n    *     mulitplied by the staking balance and divided by 100 (ergo, 1% every minute). The \r\n    *     contract resets the timestamp to prevent reentry. Thereafter, the previously saved \r\n    *     yield balance (if applicable) is added to the current yield figure. Finally, the actual \r\n    *     transfer of Dai back to the user occurs.\r\n    *\r\n     */\r\n    function unstake() public {\r\n        require(isStaking[msg.sender] = true, 'You are not staking tokens');\r\n        uint timeStaked = calculateYieldTime(msg.sender);\r\n        uint yield = SafeMath.div(SafeMath.mul(stakingBalance[msg.sender], timeStaked), 100);\r\n        startTime[msg.sender] = block.timestamp;\r\n        hodlBalance[msg.sender] = SafeMath.add(hodlBalance[msg.sender], yield);\r\n        \r\n        /**@notice The actual unstaking process starts here.\r\n         */\r\n\r\n        uint256 balance = stakingBalance[msg.sender];\r\n        require(balance > 0, 'You do not have funds to fetch');\r\n        stakingBalance[msg.sender] = 0;\r\n        daiToken.transfer(msg.sender, balance);\r\n        isStaking[msg.sender] = false;\r\n    }\r\n\r\n}",
  "sourcePath": "C:/Users/15183/Documents/dapp-projects/yield-farm/contracts/HodlFarm.sol",
  "compiler": {
    "name": "solc",
    "version": "0.6.0+commit.26b70077.Emscripten.clang"
  },
  "schemaVersion": "3.3.1",
  "updatedAt": "2020-12-16T00:58:01.238Z",
  "networkType": "ethereum",
  "devdoc": {
    "methods": {
      "constructor": {
        "details": "DaiToken address must be inserted in migrations when      this contract deploys."
      },
      "owner()": {
        "details": "Returns the address of the current owner."
      },
      "renounceOwnership()": {
        "details": "Leaves the contract without owner. It will not be possible to call `onlyOwner` functions anymore. Can only be called by the current owner.     * NOTE: Renouncing ownership will leave the contract without an owner, thereby removing any functionality that is only available to the owner."
      },
      "transferOwnership(address)": {
        "details": "Transfers ownership of the contract to a new account (`newOwner`). Can only be called by the current owner."
      }
    }
  },
  "userdoc": {
    "methods": {
      "calculateYieldTime(address)": {
        "notice": "A method for calculating yield time. dev The yield is calculated by first subtracting the initial timestamp by the current     timestamp. Thereafter, dividing 60 (as in 60 seconds per minute) by the timestamp     difference. This function is left public so the frontend can fetch and display the     user's yield in real time. param _usr The address that a user calls this function from/for."
      },
      "stake(uint256)": {
        "notice": "notice A function that stakes stablecoin Dai to the contract. dev After Dai transfers to the contract, the mapped staking balance updates.     This is necessary because the contract only pays out when the user withdraws     their earnings. The mapping keeps track of said yield. param _amount The amount to be staked to the contract."
      },
      "unstake()": {
        "notice": "A method for users to take back their tokens from the contract. dev The timeStaked uint gathers the yield time. The staked time(in minutes) is     mulitplied by the staking balance and divided by 100 (ergo, 1% every minute). The     contract resets the timestamp to prevent reentry. Thereafter, the previously saved     yield balance (if applicable) is added to the current yield figure. Finally, the actual     transfer of Dai back to the user occurs.      "
      },
      "withdrawYield()": {
        "notice": "A method for withdrawing the hodlToken yield. dev The timeStaked uint takes the result of the calculateYield function.     This contract gives the user 1% of their Dai balance in HodlToken every 60     seconds. After fetching the the calculated balance, the contract checks for     an existing balance mapped to hodlBalance. This mapping is only relevant if     the user staked Dai multiple times without unstaking/withdrawing. Further, the    staking balance of the user is first multiplied by the time staked before    divided by 100 to equate 1% of the user's stake (per minute as seen in the    calculateYield function)."
      }
    }
  }
}